{
    "abi": [
        {
            "inputs": [
                {
                    "internalType": "address",
                    "name": "_stakingToken",
                    "type": "address"
                },
                {
                    "internalType": "address",
                    "name": "_rewardToken",
                    "type": "address"
                }
            ],
            "stateMutability": "nonpayable",
            "type": "constructor"
        },
        {
            "inputs": [
                {
                    "internalType": "uint256",
                    "name": "_duration",
                    "type": "uint256"
                },
                {
                    "internalType": "uint256",
                    "name": "_apr",
                    "type": "uint256"
                }
            ],
            "name": "addTier",
            "outputs": [],
            "stateMutability": "nonpayable",
            "type": "function"
        },
        {
            "inputs": [
                {
                    "internalType": "address",
                    "name": "_account",
                    "type": "address"
                },
                {
                    "internalType": "uint256",
                    "name": "_stakeIndex",
                    "type": "uint256"
                }
            ],
            "name": "calculateReward",
            "outputs": [
                {
                    "internalType": "uint256",
                    "name": "",
                    "type": "uint256"
                }
            ],
            "stateMutability": "view",
            "type": "function"
        },
        {
            "inputs": [
                {
                    "internalType": "uint256",
                    "name": "_stakeIndex",
                    "type": "uint256"
                }
            ],
            "name": "claimReward",
            "outputs": [],
            "stateMutability": "nonpayable",
            "type": "function"
        },
        {
            "inputs": [
                {
                    "internalType": "address",
                    "name": "_account",
                    "type": "address"
                },
                {
                    "internalType": "uint256",
                    "name": "_stakeIndex",
                    "type": "uint256"
                }
            ],
            "name": "earned",
            "outputs": [
                {
                    "internalType": "uint256",
                    "name": "",
                    "type": "uint256"
                }
            ],
            "stateMutability": "view",
            "type": "function"
        },
        {
            "inputs": [],
            "name": "getTiers",
            "outputs": [
                {
                    "components": [
                        {
                            "internalType": "uint256",
                            "name": "duration",
                            "type": "uint256"
                        },
                        {
                            "internalType": "uint256",
                            "name": "apr",
                            "type": "uint256"
                        }
                    ],
                    "internalType": "struct Staking.Tier[]",
                    "name": "",
                    "type": "tuple[]"
                }
            ],
            "stateMutability": "view",
            "type": "function"
        },
        {
            "inputs": [
                {
                    "internalType": "address",
                    "name": "_account",
                    "type": "address"
                }
            ],
            "name": "getUserStakes",
            "outputs": [
                {
                    "components": [
                        {
                            "internalType": "uint256",
                            "name": "amount",
                            "type": "uint256"
                        },
                        {
                            "internalType": "uint256",
                            "name": "startTime",
                            "type": "uint256"
                        },
                        {
                            "internalType": "uint256",
                            "name": "tierId",
                            "type": "uint256"
                        },
                        {
                            "internalType": "bool",
                            "name": "withdrawn",
                            "type": "bool"
                        }
                    ],
                    "internalType": "struct Staking.Stake[]",
                    "name": "",
                    "type": "tuple[]"
                }
            ],
            "stateMutability": "view",
            "type": "function"
        },
        {
            "inputs": [],
            "name": "owner",
            "outputs": [
                {
                    "internalType": "address",
                    "name": "",
                    "type": "address"
                }
            ],
            "stateMutability": "view",
            "type": "function"
        },
        {
            "inputs": [],
            "name": "renounceOwnership",
            "outputs": [],
            "stateMutability": "nonpayable",
            "type": "function"
        },
        {
            "inputs": [],
            "name": "s_rewardToken",
            "outputs": [
                {
                    "internalType": "contract IERC20",
                    "name": "",
                    "type": "address"
                }
            ],
            "stateMutability": "view",
            "type": "function"
        },
        {
            "inputs": [],
            "name": "s_stakingToken",
            "outputs": [
                {
                    "internalType": "contract IERC20",
                    "name": "",
                    "type": "address"
                }
            ],
            "stateMutability": "view",
            "type": "function"
        },
        {
            "inputs": [
                {
                    "internalType": "uint256",
                    "name": "",
                    "type": "uint256"
                }
            ],
            "name": "s_tiers",
            "outputs": [
                {
                    "internalType": "uint256",
                    "name": "duration",
                    "type": "uint256"
                },
                {
                    "internalType": "uint256",
                    "name": "apr",
                    "type": "uint256"
                }
            ],
            "stateMutability": "view",
            "type": "function"
        },
        {
            "inputs": [],
            "name": "s_totalSupply",
            "outputs": [
                {
                    "internalType": "uint256",
                    "name": "",
                    "type": "uint256"
                }
            ],
            "stateMutability": "view",
            "type": "function"
        },
        {
            "inputs": [
                {
                    "internalType": "address",
                    "name": "",
                    "type": "address"
                },
                {
                    "internalType": "uint256",
                    "name": "",
                    "type": "uint256"
                }
            ],
            "name": "s_userStakes",
            "outputs": [
                {
                    "internalType": "uint256",
                    "name": "amount",
                    "type": "uint256"
                },
                {
                    "internalType": "uint256",
                    "name": "startTime",
                    "type": "uint256"
                },
                {
                    "internalType": "uint256",
                    "name": "tierId",
                    "type": "uint256"
                },
                {
                    "internalType": "bool",
                    "name": "withdrawn",
                    "type": "bool"
                }
            ],
            "stateMutability": "view",
            "type": "function"
        },
        {
            "inputs": [
                {
                    "internalType": "uint256",
                    "name": "_amount",
                    "type": "uint256"
                },
                {
                    "internalType": "uint256",
                    "name": "_tierId",
                    "type": "uint256"
                }
            ],
            "name": "stake",
            "outputs": [],
            "stateMutability": "nonpayable",
            "type": "function"
        },
        {
            "inputs": [
                {
                    "internalType": "address",
                    "name": "newOwner",
                    "type": "address"
                }
            ],
            "name": "transferOwnership",
            "outputs": [],
            "stateMutability": "nonpayable",
            "type": "function"
        },
        {
            "inputs": [
                {
                    "internalType": "uint256",
                    "name": "_stakeIndex",
                    "type": "uint256"
                }
            ],
            "name": "unstake",
            "outputs": [],
            "stateMutability": "nonpayable",
            "type": "function"
        },
        {
            "anonymous": false,
            "inputs": [
                {
                    "indexed": true,
                    "internalType": "address",
                    "name": "previousOwner",
                    "type": "address"
                },
                {
                    "indexed": true,
                    "internalType": "address",
                    "name": "newOwner",
                    "type": "address"
                }
            ],
            "name": "OwnershipTransferred",
            "type": "event"
        },
        {
            "anonymous": false,
            "inputs": [
                {
                    "indexed": true,
                    "internalType": "address",
                    "name": "user",
                    "type": "address"
                },
                {
                    "indexed": false,
                    "internalType": "uint256",
                    "name": "reward",
                    "type": "uint256"
                },
                {
                    "indexed": false,
                    "internalType": "uint256",
                    "name": "stakeIndex",
                    "type": "uint256"
                }
            ],
            "name": "RewardPaid",
            "type": "event"
        },
        {
            "anonymous": false,
            "inputs": [
                {
                    "indexed": true,
                    "internalType": "address",
                    "name": "user",
                    "type": "address"
                },
                {
                    "indexed": false,
                    "internalType": "uint256",
                    "name": "amount",
                    "type": "uint256"
                },
                {
                    "indexed": false,
                    "internalType": "uint256",
                    "name": "tierId",
                    "type": "uint256"
                },
                {
                    "indexed": false,
                    "internalType": "uint256",
                    "name": "stakeIndex",
                    "type": "uint256"
                }
            ],
            "name": "Staked",
            "type": "event"
        },
        {
            "anonymous": false,
            "inputs": [
                {
                    "indexed": false,
                    "internalType": "uint256",
                    "name": "tierId",
                    "type": "uint256"
                },
                {
                    "indexed": false,
                    "internalType": "uint256",
                    "name": "duration",
                    "type": "uint256"
                },
                {
                    "indexed": false,
                    "internalType": "uint256",
                    "name": "apr",
                    "type": "uint256"
                }
            ],
            "name": "TierAdded",
            "type": "event"
        },
        {
            "anonymous": false,
            "inputs": [
                {
                    "indexed": true,
                    "internalType": "address",
                    "name": "user",
                    "type": "address"
                },
                {
                    "indexed": false,
                    "internalType": "uint256",
                    "name": "amount",
                    "type": "uint256"
                },
                {
                    "indexed": false,
                    "internalType": "uint256",
                    "name": "reward",
                    "type": "uint256"
                },
                {
                    "indexed": false,
                    "internalType": "uint256",
                    "name": "stakeIndex",
                    "type": "uint256"
                }
            ],
            "name": "Unstaked",
            "type": "event"
        },
        {
            "inputs": [
                {
                    "internalType": "address",
                    "name": "owner",
                    "type": "address"
                }
            ],
            "name": "OwnableInvalidOwner",
            "type": "error"
        },
        {
            "inputs": [
                {
                    "internalType": "address",
                    "name": "account",
                    "type": "address"
                }
            ],
            "name": "OwnableUnauthorizedAccount",
            "type": "error"
        },
        {
            "inputs": [],
            "name": "ReentrancyGuardReentrantCall",
            "type": "error"
        }
    ],
    "bytecode": {
        "linkReferences": {},
        "object": "0x608060405234801561000f575f5ffd5b5060405161211a38038061211a83398181016040528101906100319190610261565b3360015f819055505f73ffffffffffffffffffffffffffffffffffffffff168173ffffffffffffffffffffffffffffffffffffffff16036100a9575f6040517f1e4fbdf70000000000000000000000000000000000000000000000000000000081526004016100a091906102ae565b60405180910390fd5b6100b88161014060201b60201c565b508160025f6101000a81548173ffffffffffffffffffffffffffffffffffffffff021916908373ffffffffffffffffffffffffffffffffffffffff1602179055508060035f6101000a81548173ffffffffffffffffffffffffffffffffffffffff021916908373ffffffffffffffffffffffffffffffffffffffff16021790555050506102c7565b5f60015f9054906101000a900473ffffffffffffffffffffffffffffffffffffffff1690508160015f6101000a81548173ffffffffffffffffffffffffffffffffffffffff021916908373ffffffffffffffffffffffffffffffffffffffff1602179055508173ffffffffffffffffffffffffffffffffffffffff168173ffffffffffffffffffffffffffffffffffffffff167f8be0079c531659141344cd1fd0a4f28419497f9722a3daafe3b4186f6b6457e060405160405180910390a35050565b5f5ffd5b5f73ffffffffffffffffffffffffffffffffffffffff82169050919050565b5f61023082610207565b9050919050565b61024081610226565b811461024a575f5ffd5b50565b5f8151905061025b81610237565b92915050565b5f5f6040838503121561027757610276610203565b5b5f6102848582860161024d565b92505060206102958582860161024d565b9150509250929050565b6102a881610226565b82525050565b5f6020820190506102c15f83018461029f565b92915050565b611e46806102d45f395ff3fe608060405234801561000f575f5ffd5b50600436106100fe575f3560e01c8063842e298111610095578063bd24232511610064578063bd24232514610284578063da3d90ea146102b7578063de170570146102e8578063f2fde38b14610306576100fe565b8063842e2981146101fc5780638da5cb5b1461022c578063adca9b721461024a578063ae169a5014610268576100fe565b80636374cc00116100d15780636374cc001461019a5780636a74a0fc146101b8578063715018a6146101d65780637b0472f0146101e0576100fe565b80631852e8d9146101025780632e17de78146101325780633e491d471461014e578063453507591461017e575b5f5ffd5b61011c60048036038101906101179190611318565b610322565b6040516101299190611365565b60405180910390f35b61014c6004803603810190610147919061137e565b6104b1565b005b61016860048036038101906101639190611318565b6108d5565b6040516101759190611365565b60405180910390f35b610198600480360381019061019391906113a9565b6108e8565b005b6101a2610991565b6040516101af9190611442565b60405180910390f35b6101c06109b6565b6040516101cd9190611365565b60405180910390f35b6101de6109bc565b005b6101fa60048036038101906101f591906113a9565b6109cf565b005b6102166004803603810190610211919061145b565b610cc7565b60405161022391906115aa565b60405180910390f35b610234610d97565b60405161024191906115d9565b60405180910390f35b610252610dbf565b60405161025f9190611442565b60405180910390f35b610282600480360381019061027d919061137e565b610de4565b005b61029e60048036038101906102999190611318565b610f75565b6040516102ae9493929190611601565b60405180910390f35b6102d160048036038101906102cc919061137e565b610fc7565b6040516102df929190611644565b60405180910390f35b6102f0610ff6565b6040516102fd9190611740565b60405180910390f35b610320600480360381019061031b919061145b565b611065565b005b5f5f60055f8573ffffffffffffffffffffffffffffffffffffffff1673ffffffffffffffffffffffffffffffffffffffff1681526020019081526020015f20838154811061037357610372611760565b5b905f5260205f2090600402016040518060800160405290815f82015481526020016001820154815260200160028201548152602001600382015f9054906101000a900460ff16151515158152505090508060600151156103d6575f9150506104ab565b5f60048260400151815481106103ef576103ee611760565b5b905f5260205f2090600202016040518060400160405290815f820154815260200160018201548152505090505f82602001514261042c91906117ba565b90505f825f01511180156104425750815f015181105b15610452575f93505050506104ab565b5f5f835f01511461046657825f0151610468565b815b90506301e1338061271061047c91906117ed565b818460200151865f015161049091906117ed565b61049a91906117ed565b6104a4919061185b565b9450505050505b92915050565b6104b96110e9565b5f60055f3373ffffffffffffffffffffffffffffffffffffffff1673ffffffffffffffffffffffffffffffffffffffff1681526020019081526020015f20828154811061050957610508611760565b5b905f5260205f20906004020190505f60048260020154815481106105305761052f611760565b5b905f5260205f2090600202019050816003015f9054906101000a900460ff161561058f576040517f08c379a0000000000000000000000000000000000000000000000000000000008152600401610586906118e5565b60405180910390fd5b805f015482600101546105a29190611903565b4210156105e4576040517f08c379a00000000000000000000000000000000000000000000000000000000081526004016105db90611980565b60405180910390fd5b5f6105ef3385610322565b90506001836003015f6101000a81548160ff021916908315150217905550825f015460065f82825461062191906117ba565b925050819055505f60025f9054906101000a900473ffffffffffffffffffffffffffffffffffffffff1673ffffffffffffffffffffffffffffffffffffffff1663a9059cbb33865f01546040518363ffffffff1660e01b815260040161068892919061199e565b6020604051808303815f875af11580156106a4573d5f5f3e3d5ffd5b505050506040513d601f19601f820116820180604052508101906106c891906119ef565b90508061070a576040517f08c379a000000000000000000000000000000000000000000000000000000000815260040161070190611a64565b60405180910390fd5b5f821115610871575f60035f9054906101000a900473ffffffffffffffffffffffffffffffffffffffff1690505f8173ffffffffffffffffffffffffffffffffffffffff16338560405160240161076292919061199e565b6040516020818303038152906040527f40c10f19000000000000000000000000000000000000000000000000000000007bffffffffffffffffffffffffffffffffffffffffffffffffffffffff19166020820180517bffffffffffffffffffffffffffffffffffffffffffffffffffffffff83818316178352505050506040516107ec9190611ad4565b5f604051808303815f865af19150503d805f8114610825576040519150601f19603f3d011682016040523d82523d5f602084013e61082a565b606091505b505090508061086e576040517f08c379a000000000000000000000000000000000000000000000000000000000815260040161086590611b34565b60405180910390fd5b50505b3373ffffffffffffffffffffffffffffffffffffffff167f204fccf0d92ed8d48f204adb39b2e81e92bad0dedb93f5716ca9478cfb57de00855f015484886040516108be93929190611b52565b60405180910390a2505050506108d261112d565b50565b5f6108e08383610322565b905092915050565b6108f0611136565b6004604051806040016040528084815260200183815250908060018154018082558091505060019003905f5260205f2090600202015f909190919091505f820151815f01556020820151816001015550507f8a68dd5ddbfcc5467b08bb78844d64853315ada46e7fcfe61e44f1a011ccc0d2600160048054905061097491906117ba565b838360405161098593929190611b52565b60405180910390a15050565b60035f9054906101000a900473ffffffffffffffffffffffffffffffffffffffff1681565b60065481565b6109c4611136565b6109cd5f6111bd565b565b6109d76110e9565b5f8211610a19576040517f08c379a0000000000000000000000000000000000000000000000000000000008152600401610a1090611bd1565b60405180910390fd5b6004805490508110610a60576040517f08c379a0000000000000000000000000000000000000000000000000000000008152600401610a5790611c39565b60405180910390fd5b60055f3373ffffffffffffffffffffffffffffffffffffffff1673ffffffffffffffffffffffffffffffffffffffff1681526020019081526020015f2060405180608001604052808481526020014281526020018381526020015f1515815250908060018154018082558091505060019003905f5260205f2090600402015f909190919091505f820151815f015560208201518160010155604082015181600201556060820151816003015f6101000a81548160ff02191690831515021790555050508160065f828254610b349190611903565b925050819055505f60025f9054906101000a900473ffffffffffffffffffffffffffffffffffffffff1673ffffffffffffffffffffffffffffffffffffffff166323b872dd3330866040518463ffffffff1660e01b8152600401610b9a93929190611c57565b6020604051808303815f875af1158015610bb6573d5f5f3e3d5ffd5b505050506040513d601f19601f82011682018060405250810190610bda91906119ef565b905080610c1c576040517f08c379a0000000000000000000000000000000000000000000000000000000008152600401610c1390611cd6565b60405180910390fd5b3373ffffffffffffffffffffffffffffffffffffffff167fb4caaf29adda3eefee3ad552a8e85058589bf834c7466cae4ee58787f70589ed8484600160055f3373ffffffffffffffffffffffffffffffffffffffff1673ffffffffffffffffffffffffffffffffffffffff1681526020019081526020015f2080549050610ca391906117ba565b604051610cb293929190611b52565b60405180910390a250610cc361112d565b5050565b606060055f8373ffffffffffffffffffffffffffffffffffffffff1673ffffffffffffffffffffffffffffffffffffffff1681526020019081526020015f20805480602002602001604051908101604052809291908181526020015f905b82821015610d8c578382905f5260205f2090600402016040518060800160405290815f82015481526020016001820154815260200160028201548152602001600382015f9054906101000a900460ff16151515158152505081526020019060010190610d25565b505050509050919050565b5f60015f9054906101000a900473ffffffffffffffffffffffffffffffffffffffff16905090565b60025f9054906101000a900473ffffffffffffffffffffffffffffffffffffffff1681565b610dec6110e9565b5f60055f3373ffffffffffffffffffffffffffffffffffffffff1673ffffffffffffffffffffffffffffffffffffffff1681526020019081526020015f208281548110610e3c57610e3b611760565b5b905f5260205f20906004020190505f6004826002015481548110610e6357610e62611760565b5b905f5260205f2090600202019050816003015f9054906101000a900460ff1615610ec2576040517f08c379a0000000000000000000000000000000000000000000000000000000008152600401610eb990611d64565b60405180910390fd5b805f01548260010154610ed59190611903565b421015610f17576040517f08c379a0000000000000000000000000000000000000000000000000000000008152600401610f0e90611980565b60405180910390fd5b5f610f2233856108d5565b90505f811115610f67576040517f08c379a0000000000000000000000000000000000000000000000000000000008152600401610f5e90611df2565b60405180910390fd5b505050610f7261112d565b50565b6005602052815f5260405f208181548110610f8e575f80fd5b905f5260205f2090600402015f9150915050805f015490806001015490806002015490806003015f9054906101000a900460ff16905084565b60048181548110610fd6575f80fd5b905f5260205f2090600202015f91509050805f0154908060010154905082565b60606004805480602002602001604051908101604052809291908181526020015f905b8282101561105c578382905f5260205f2090600202016040518060400160405290815f820154815260200160018201548152505081526020019060010190611019565b50505050905090565b61106d611136565b5f73ffffffffffffffffffffffffffffffffffffffff168173ffffffffffffffffffffffffffffffffffffffff16036110dd575f6040517f1e4fbdf70000000000000000000000000000000000000000000000000000000081526004016110d491906115d9565b60405180910390fd5b6110e6816111bd565b50565b60025f5403611124576040517f3ee5aeb500000000000000000000000000000000000000000000000000000000815260040160405180910390fd5b60025f81905550565b60015f81905550565b61113e611280565b73ffffffffffffffffffffffffffffffffffffffff1661115c610d97565b73ffffffffffffffffffffffffffffffffffffffff16146111bb5761117f611280565b6040517f118cdaa70000000000000000000000000000000000000000000000000000000081526004016111b291906115d9565b60405180910390fd5b565b5f60015f9054906101000a900473ffffffffffffffffffffffffffffffffffffffff1690508160015f6101000a81548173ffffffffffffffffffffffffffffffffffffffff021916908373ffffffffffffffffffffffffffffffffffffffff1602179055508173ffffffffffffffffffffffffffffffffffffffff168173ffffffffffffffffffffffffffffffffffffffff167f8be0079c531659141344cd1fd0a4f28419497f9722a3daafe3b4186f6b6457e060405160405180910390a35050565b5f33905090565b5f5ffd5b5f73ffffffffffffffffffffffffffffffffffffffff82169050919050565b5f6112b48261128b565b9050919050565b6112c4816112aa565b81146112ce575f5ffd5b50565b5f813590506112df816112bb565b92915050565b5f819050919050565b6112f7816112e5565b8114611301575f5ffd5b50565b5f81359050611312816112ee565b92915050565b5f5f6040838503121561132e5761132d611287565b5b5f61133b858286016112d1565b925050602061134c85828601611304565b9150509250929050565b61135f816112e5565b82525050565b5f6020820190506113785f830184611356565b92915050565b5f6020828403121561139357611392611287565b5b5f6113a084828501611304565b91505092915050565b5f5f604083850312156113bf576113be611287565b5b5f6113cc85828601611304565b92505060206113dd85828601611304565b9150509250929050565b5f819050919050565b5f61140a6114056114008461128b565b6113e7565b61128b565b9050919050565b5f61141b826113f0565b9050919050565b5f61142c82611411565b9050919050565b61143c81611422565b82525050565b5f6020820190506114555f830184611433565b92915050565b5f602082840312156114705761146f611287565b5b5f61147d848285016112d1565b91505092915050565b5f81519050919050565b5f82825260208201905092915050565b5f819050602082019050919050565b6114b8816112e5565b82525050565b5f8115159050919050565b6114d2816114be565b82525050565b608082015f8201516114ec5f8501826114af565b5060208201516114ff60208501826114af565b50604082015161151260408501826114af565b50606082015161152560608501826114c9565b50505050565b5f61153683836114d8565b60808301905092915050565b5f602082019050919050565b5f61155882611486565b6115628185611490565b935061156d836114a0565b805f5b8381101561159d578151611584888261152b565b975061158f83611542565b925050600181019050611570565b5085935050505092915050565b5f6020820190508181035f8301526115c2818461154e565b905092915050565b6115d3816112aa565b82525050565b5f6020820190506115ec5f8301846115ca565b92915050565b6115fb816114be565b82525050565b5f6080820190506116145f830187611356565b6116216020830186611356565b61162e6040830185611356565b61163b60608301846115f2565b95945050505050565b5f6040820190506116575f830185611356565b6116646020830184611356565b9392505050565b5f81519050919050565b5f82825260208201905092915050565b5f819050602082019050919050565b604082015f8201516116a85f8501826114af565b5060208201516116bb60208501826114af565b50505050565b5f6116cc8383611694565b60408301905092915050565b5f602082019050919050565b5f6116ee8261166b565b6116f88185611675565b935061170383611685565b805f5b8381101561173357815161171a88826116c1565b9750611725836116d8565b925050600181019050611706565b5085935050505092915050565b5f6020820190508181035f83015261175881846116e4565b905092915050565b7f4e487b71000000000000000000000000000000000000000000000000000000005f52603260045260245ffd5b7f4e487b71000000000000000000000000000000000000000000000000000000005f52601160045260245ffd5b5f6117c4826112e5565b91506117cf836112e5565b92508282039050818111156117e7576117e661178d565b5b92915050565b5f6117f7826112e5565b9150611802836112e5565b9250828202611810816112e5565b915082820484148315176118275761182661178d565b5b5092915050565b7f4e487b71000000000000000000000000000000000000000000000000000000005f52601260045260245ffd5b5f611865826112e5565b9150611870836112e5565b9250826118805761187f61182e565b5b828204905092915050565b5f82825260208201905092915050565b7f5374616b6520616c72656164792077697468647261776e0000000000000000005f82015250565b5f6118cf60178361188b565b91506118da8261189b565b602082019050919050565b5f6020820190508181035f8301526118fc816118c3565b9050919050565b5f61190d826112e5565b9150611918836112e5565b92508282019050808211156119305761192f61178d565b5b92915050565b7f5374616b696e6720706572696f64206e6f74206f7665720000000000000000005f82015250565b5f61196a60178361188b565b915061197582611936565b602082019050919050565b5f6020820190508181035f8301526119978161195e565b9050919050565b5f6040820190506119b15f8301856115ca565b6119be6020830184611356565b9392505050565b6119ce816114be565b81146119d8575f5ffd5b50565b5f815190506119e9816119c5565b92915050565b5f60208284031215611a0457611a03611287565b5b5f611a11848285016119db565b91505092915050565b7f4661696c656420746f2073656e64207374616b656420746f6b656e73000000005f82015250565b5f611a4e601c8361188b565b9150611a5982611a1a565b602082019050919050565b5f6020820190508181035f830152611a7b81611a42565b9050919050565b5f81519050919050565b5f81905092915050565b8281835e5f83830152505050565b5f611aae82611a82565b611ab88185611a8c565b9350611ac8818560208601611a96565b80840191505092915050565b5f611adf8284611aa4565b915081905092915050565b7f4661696c656420746f206d696e742072657761726420746f6b656e73000000005f82015250565b5f611b1e601c8361188b565b9150611b2982611aea565b602082019050919050565b5f6020820190508181035f830152611b4b81611b12565b9050919050565b5f606082019050611b655f830186611356565b611b726020830185611356565b611b7f6040830184611356565b949350505050565b7f43616e6e6f74207374616b6520300000000000000000000000000000000000005f82015250565b5f611bbb600e8361188b565b9150611bc682611b87565b602082019050919050565b5f6020820190508181035f830152611be881611baf565b9050919050565b7f496e76616c6964207469657220494400000000000000000000000000000000005f82015250565b5f611c23600f8361188b565b9150611c2e82611bef565b602082019050919050565b5f6020820190508181035f830152611c5081611c17565b9050919050565b5f606082019050611c6a5f8301866115ca565b611c7760208301856115ca565b611c846040830184611356565b949350505050565b7f546f6b656e207472616e73666572206661696c656400000000000000000000005f82015250565b5f611cc060158361188b565b9150611ccb82611c8c565b602082019050919050565b5f6020820190508181035f830152611ced81611cb4565b9050919050565b7f43616e6e6f7420636c61696d2066726f6d20612077697468647261776e2073745f8201527f616b650000000000000000000000000000000000000000000000000000000000602082015250565b5f611d4e60238361188b565b9150611d5982611cf4565b604082019050919050565b5f6020820190508181035f830152611d7b81611d42565b9050919050565b7f436c61696d2072657761726420627920756e7374616b696e67206174207468655f8201527f20656e64206f6620746865207465726d00000000000000000000000000000000602082015250565b5f611ddc60308361188b565b9150611de782611d82565b604082019050919050565b5f6020820190508181035f830152611e0981611dd0565b905091905056fea264697066735822122028507d0988abbaae35c3dbe4f85b45b373d6c80ead7a75da12e41e726346831964736f6c634300081e0033"
    },
    "id": 29,
    "methodIdentifiers": {
        "addTier(uint256,uint256)": "45350759",
        "calculateReward(address,uint256)": "1852e8d9",
        "claimReward(uint256)": "ae169a50",
        "earned(address,uint256)": "3e491d47",
        "getTiers()": "de170570",
        "getUserStakes(address)": "842e2981",
        "owner()": "8da5cb5b",
        "renounceOwnership()": "715018a6",
        "s_rewardToken()": "6374cc00",
        "s_stakingToken()": "adca9b72",
        "s_tiers(uint256)": "da3d90ea",
        "s_totalSupply()": "6a74a0fc",
        "s_userStakes(address,uint256)": "bd242325",
        "stake(uint256,uint256)": "7b0472f0",
        "transferOwnership(address)": "f2fde38b",
        "unstake(uint256)": "2e17de78"
    }
}